:020000040000FA
:060000000A128A110C280F
:10000800FE00030EF2000A08F3000A128A1184287F
:100018000A128A110F28F80183010A128A11AB28E3
:10002800831603178801890108148814831603139B
:1000380085168601880183120313860188019016AC
:10004800101690151015901010148F018E010430A1
:100058000A128A114D200A128A110A128A11E22004
:100068000A128A11F401F501F60124300A128A11E4
:10007800CC200A128A118B17831603130C148312CF
:1000880003130C10831603138C15831203138C119E
:100098000800F6006D28831603130F088F394038BF
:1000A8008F000F148328831603130F088F395038D5
:1000B8008F000F148328831603130F088F396038B5
:1000C8008F000F1483287030831603138F040F14C6
:1000D80083287608F400F5017508003A0319752895
:1000E80083287408013A03194F28033A031957283B
:1000F800063A03195F280C3A031967288328080071
:10010800831203130C1C89288A288F280130F100D8
:100118007108F8070C108C1D92289328A4280A123D
:100128008A11F8200A128A1183120313880006081C
:100138000A128A1108210A128A11831203138C11D8
:1001480073088A00720E8300FE0E7E0E09000A12E2
:100158008A1114200A128A11B7280130A000200839
:100168008607B728F801780883120313A000A101B5
:100178002108003A0319C128B7282008013A0319B1
:10018800B128033A0319B628B7280A128A110C288D
:10019800F700831603138712771DD328D428D8288D
:1001A800760894008715DC28740876049400871173
:1001B8007708750483120313940008008316031349
:1001C8009F131F129F12831203131F083F394038D1
:1001D8009F00C3309F051030F400F40BF128000095
:1001E800831203131F1408000A128A1101210A122C
:1001F8008A11831203131308080083160313141CAF
:100208000629072901290800F00070088312031342
:040218009300080047
:04400E00D420FF3F7C
:00000001FF
