:020000040000FA
:060000000A128A110C280F
:10000800FE00030EF0000A08F1000A128A11932874
:100018000A128A110F2883010A128A118A28F40009
:100028003328831603130F088F3940388F000F14B5
:100038004928831603130F088F3950388F000F147F
:100048004928831603130F088F3960388F000F145F
:1000580049287030831603138F040F144928740835
:10006800F200F3017308003A03193B284928720883
:10007800013A03191528033A03191D28063A0319EA
:1000880025280C3A03192D28492808008316031738
:10009800880189010814881483160313860107133D
:1000A800871788120813881383120313860188019F
:1000B80004300A128A1113200A128A110A128A11AC
:1000C80074200A128A110A128A119A200A128A11B5
:1000D8008B17831603138C16831203138C120800D4
:1000E800831603139F131F129F12831203131F08F3
:1000F8003F3940389F00C3309F051030F200F20BA3
:1001080083280000831203131F1408000A128A119F
:100118004A200A128A118F280A128A110C2871089B
:0E0128008A00700E8300FE0E7E0E0900080095
:04400E00D420FF3F7C
:00000001FF
