:020000040000FA
:060000000A128A110C280F
:10000800FE00030EF2000A08F3000A128A1184287F
:100018000A128A110F28F80183010A128A11AF28DF
:10002800831603178801890108148814831603139B
:1000380085168601880183120313860188018316B9
:100048000313811201128111011581140114FF306B
:1000580083120313810004300A128A114D200A12F8
:100068008A110A128A11EE200A128A11F401F50186
:10007800F60124300A128A11D8200A128A118B1725
:100088008B160B11831603138C15831203138C1113
:100098000800F6006D28831603130F088F394038BF
:1000A8008F000F148328831603130F088F395038D5
:1000B8008F000F148328831603130F088F396038B5
:1000C8008F000F1483287030831603138F040F14C6
:1000D80083287608F400F5017508003A0319752895
:1000E80083287408013A03194F28033A031957283B
:1000F800063A03195F280C3A031967288328080071
:100108000B1D8728882891280130F1007108F8070D
:100118000B11FF30831203138100831203138C1D0C
:1001280096289728A8280A128A1104210A128A11E7
:1001380083120313880006080A128A1114210A126E
:100148008A11831203138C1173088A00720E8300BC
:10015800FE0E7E0E09000A128A1114200A128A1154
:10016800BC280130A00020088607CE28F801CE2838
:10017800780883120313A000A1012108003A03198B
:10018800C628CE282008F93A0319B528033A0319D6
:10019800BA28CE28060A031DD228D328BC288601EF
:1001A800BC280A128A110C28F70083160313871239
:1001B800771DDF28E028E428760894008715E828CA
:1001C8007408760494008711770875048312031362
:1001D80094000800831603139F131F129F128312A3
:1001E80003131F083F3940389F00C3309F05103064
:1001F800F400F40BFD280000831203131F140800F9
:100208000A128A110D210A128A1183120313130884
:10021800080083160313141C122913290D2908003A
:0C022800F000700883120313930008001C
:04400E00D420FF3F7C
:00000001FF
