:020000040000FA
:060000000A128A110E280D
:10000800FE00030EF4000408F5000A08F6000A12C0
:100018008A111A280A128A111128F701F801F90120
:10002800FA01FB0183010A128A1144290B1D1D28BC
:100038001E282B280130F1007108FB070130F10060
:100048007108FA070B11FF30831203138100831222
:1000580003138C1D3028312854280A128A1157217D
:100068000A128A11F1007108F7007703031D3D2871
:100078003E28452879080A128A1167210A128A112E
:10008800512802307706031D4A284B285128780842
:100098000A128A1167210A128A11831203138C111A
:1000A8000C1F5728582889289F185B285C28802807
:1000B8006D281E08F1007108F9001F08C3390438BB
:1000C8009F0080281E08F1007108F800C3309F05C2
:1000D80080281F0CF100710C0F39F200F30173082E
:1000E800003A0319782880287208003A03195D2815
:1000F800013A0319662880281030F100F10B822894
:100108000000831203139F140C1376088A007508E5
:100118008400740E8300FE0E7E0E090083160317FA
:10012800880189010814881483160313051485149B
:1001380085168601880183120313860188018316B8
:100148000313811201128111011581140114FF306A
:1001580083120313810004300A128A11D5200A126F
:100168008A110A128A112C210A128A118312031386
:10017800A001A101A20124300A128A110E210A123B
:100188008A118B178B160B11831603130C17831206
:1001980003130C13831603138C15831203138C118A
:1001A800080083120313A200F728831603130F080D
:1001B8008F3940388F000F140D29831603130F0849
:1001C8008F3950388F000F140D29831603130F0829
:1001D8008F3960388F000F140D2970308316031380
:1001E8008F040F140D292208A000A1012108003A4C
:1001F8000319FF280D292008013A0319D928033AC1
:100208000319E128063A0319E9280C3A0319F128D9
:100218000D29080083120313A30083160313871202
:1002280083120313231D19291A292029220883164A
:100238000313940087152629200822048316031324
:1002480094008711831203132308210494000800E3
:10025800831603139F131F129F12831203131F0881
:100268003F3940389F00C3309F050F308312031376
:10027800A000A00B3D294029831203131F14080076
:100288000A128A1192200A128A112030831203134B
:10029800A400A40B4D290000831203139F145329B3
:1002A8000A128A110E280A128A1160210A128A116A
:1002B800831203131308080083160313141C6529FB
:1002C800662960290800F000700883120313930060
:0202D80008001C
:04400E00D420FF3F7C
:00000001FF
