:020000040000FA
:060000000A128A110C280F
:10000800FE00030EF2000A08F3000A128A118D2876
:100018000A128A110F28F601F701F801F901830184
:100028000A128A11F0288316031788018901081417
:100038008814831603130514851485168601880110
:100048008312031386018801831603138112011298
:100058008111011581140114FF30831203138100EB
:1000680004300A128A1154200A128A110A128A11BB
:10007800DA200A128A1183120313A001A101A20136
:1000880024300A128A11BC200A128A118B178B1687
:100098000B11831603138C15831203138C1108009C
:1000A80083120313A0007628831603130F088F39D1
:1000B80040388F000F148C28831603130F088F39CC
:1000C80050388F000F148C28831603130F088F39AC
:1000D80060388F000F148C287030831603138F0438
:1000E8000F148C282008F400F5017508003A03194C
:1000F8007E288C287408013A03195828033A0319F2
:100108006028063A031968280C3A031970288C28C5
:1001180008000B1D902891289E280130F1007108D5
:10012800F9070130F1007108F8070B11FF3083124D
:1001380003138100831203138C1DA328A428B52858
:100148000A128A11FD200A128A11831203138800E9
:1001580006080A128A110D210A128A118312031342
:100168008C1173088A00720E8300FE0E7E0E090041
:10017800F400831603138712741DC328C428CC28DF
:100188008312031322088316031394008715D428B7
:100198008312031320082204831603139400871183
:1001A80074088312031321049400080083160313B0
:1001B8009F131F129F12831203131F083F394038E1
:1001C8009F00C3309F051030F400F40BE9280000AD
:1001D800831203131F1408000A128A1117200A1227
:1001E8008A118312031386018801F5280A128A11DD
:1001F8000C280A128A1106210A128A118312031383
:100208001308080083160313141C0B290C2906294C
:0E0218000800F0007008831203139300080022
:04400E00D420FF3F7C
:00000001FF
