:020000040000FA
:060000000A128A110E280D
:10000800FE00030EF4000408F5000A08F6000A12C0
:100018008A111B280A128A111128F701F801F9011F
:1000280083120313A50183010A128A112B290B1DC0
:100038001E281F282C280130F1007108F90701300B
:10004800F1007108F8070B11FF30831203138100C8
:10005800831203138C1D312832283B2806080A1204
:100068008A1140210A128A11831203138C110C1F62
:100078003E283F2870289F1842284328672854287C
:100088001E08F1007108A5001F08C33904389F0035
:1000980067281E08F1007108F700C3309F0567281C
:1000A8001F0CF100710C0F39F200F3017308003ACC
:1000B80003195F2867287208003A03194428013A8F
:1000C80003194D2867281030F100F10B692800004A
:1000D800831203139F140C1376088A007508840092
:1000E800740E8300FE0E7E0E090083160317880126
:1000F80089010814881483160313051485148516BA
:10010800860188018312031386018801831603136D
:10011800811201128111011581140114FF3083121B
:100128000313810004300A128A11BC200A128A11B2
:100138000A128A1113210A128A1183120313A001C9
:10014800A101A20124300A128A11F5200A128A118B
:100158008B178B160B11831603130C1783120313BB
:100168000C13831603138C15831203138C110800C8
:1001780083120313A200DE28831603130F088F3996
:1001880040388F000F14F428831603130F088F3993
:1001980050388F000F14F428831603130F088F3973
:1001A80060388F000F14F4287030831603138F04FF
:1001B8000F14F4282208A000A1012108003A03190D
:1001C800E628F4282008013A0319C028033A03193D
:1001D800C828063A0319D0280C3A0319D828F42855
:1001E800080083120313A3008316031387128312D4
:1001F8000313231D00290129072922088316031345
:10020800940087150D2920082204831603139400EF
:10021800871183120313230821049400080083160E
:1002280003139F131F129F12831203131F083F39D2
:1002380040389F00C3309F050F3083120313A0007E
:10024800A00B24292729831203131F1408000A125C
:100258008A1179200A128A11203083120313A4000C
:10026800A40B34290000831203139F142508860069
:100278003A290A128A110E28F00070088312031313
:0402880093000800D7
:04400E00D420FF3F7C
:00000001FF
