:020000040000FA
:060000000A128A110E280D
:10000800FE00030EF4000408F5000A08F6000A12C0
:100018008A111C280A128A111128F701F801F9011E
:1000280083120313A501A60183010A128A114A2922
:100038000B1D1F2820282D280130F1007108F90711
:100048000130F1007108F8070B11FF308312031318
:100058008100831203138C1D322833285A280A1270
:100068008A1161210A128A11F1007108F7007703D9
:10007800031D3F28402849288312031326080A1223
:100088008A1171210A128A11572802307706031D36
:100098004E284F2857288312031325080A128A115D
:1000A80071210A128A11831203138C110C1F5D2807
:1000B8005E288F289F1861286228862873281E08C2
:1000C800F1007108A6001F08C33904389F0086286C
:1000D8001E08F1007108A500C3309F0586281F0C73
:1000E800F100710C0F39F200F3017308003A03199B
:1000F8007E2886287208003A03196328013A0319F2
:100108006C2886281030F100F10B88280000831233
:1001180003139F140C1376088A0075088400740E64
:100128008300FE0E7E0E09008316031788018901DD
:10013800081488148316031305148514851686017C
:100148008801831203138601880183160313811221
:1001580001128111011581140114FF308312031358
:10016800810004300A128A11DB200A128A110A124D
:100178008A1132210A128A1183120313A001A101E4
:10018800A20124300A128A1114210A128A118B172B
:100198008B160B11831603130C17831203130C13FE
:1001A800831603138C15831203138C110800831212
:1001B8000313A200FD28831603130F088F39403854
:1001C8008F000F141329831603130F088F39503823
:1001D8008F000F141329831603130F088F39603803
:1001E8008F000F1413297030831603138F040F1414
:1001F80013292208A000A1012108003A03190529A2
:1002080013292008013A0319DF28033A0319E728BC
:10021800063A0319EF280C3A0319F728132908009E
:1002280083120313A3008316031387128312031385
:10023800231D1F2920292629220883160313940029
:1002480087152C292008220483160313940087118C
:100258008312031323082104940008008316031350
:100268009F131F129F12831203131F083F39403830
:100278009F00C3309F050F3083120313A000A00B0B
:1002880043294629831203131F1408000A128A11EE
:1002980098200A128A11203083120313A400A40B99
:1002A80053290000831203139F142608860025088B
:1002B800880059290A128A110E280A128A116A21FD
:1002C8000A128A11831203131308080083160313F2
:1002D800141C6F2970296A290800F000700883121D
:0602E8000313930008005F
:04400E00D420FF3F7C
:00000001FF
