:020000040000FA
:060000000A128A110E280D
:10000800FE00030EF4000408F5000A08F6000A12C0
:100018008A111B280A128A111128F701F801F9011F
:1000280083120313A50183010A128A1133290B1DB8
:100038001E281F282C280130F1007108F90701300B
:10004800F1007108F8070B11FF30831203138100C8
:10005800831203138C1D3128322843280A128A116F
:1000680048210A128A1183120313880025080A12EC
:100078008A1158210A128A11831203138C110C1F3A
:100088004628472878289F184A284B286F285C2834
:100098001E08F1007108A5001F08C33904389F0025
:1000A8006F281E08F1007108F700C3309F056F28FC
:1000B8001F0CF100710C0F39F200F3017308003ABC
:1000C800031967286F287208003A03194C28013A67
:1000D800031955286F281030F100F10B7128000022
:1000E800831203139F140C1376088A007508840082
:1000F800740E8300FE0E7E0E090083160317880116
:1001080089010814881483160313051485148516A9
:10011800860188018312031386018801831603135D
:10012800811201128111011581140114FF3083120B
:100138000313810004300A128A11C4200A128A119A
:100148000A128A111B210A128A1183120313A001B1
:10015800A101A20124300A128A11FD200A128A1173
:100168008B178B160B11831603130C1783120313AB
:100178000C13831603138C15831203138C110800B8
:1001880083120313A200E628831603130F088F397E
:1001980040388F000F14FC28831603130F088F397B
:1001A80050388F000F14FC28831603130F088F395B
:1001B80060388F000F14FC287030831603138F04E7
:1001C8000F14FC282208A000A1012108003A0319F5
:1001D800EE28FC282008013A0319C828033A031915
:1001E800D028063A0319D8280C3A0319E028FC2825
:1001F800080083120313A3008316031387128312C4
:100208000313231D082909290F292208831603131C
:1002180094008715152920082204831603139400D7
:1002280087118312031323082104940008008316FE
:1002380003139F131F129F12831203131F083F39C2
:1002480040389F00C3309F050F3083120313A0006E
:10025800A00B2C292F29831203131F1408000A123C
:100268008A1181200A128A11203083120313A400F4
:10027800A40B3C290000831203139F142508860051
:1002880042290A128A110E280A128A1151210A12C9
:100298008A11831203131308080083160313141C0E
:1002A8005629572951290800F000700883120313B2
:0402B80093000800A7
:04400E00D420FF3F7C
:00000001FF
