:020000040000FA
:060000000A128A110C280F
:10000800FE00030EF1000A08F2000A128A11DB282A
:100018000A128A110F28F701F801F901FA01830180
:100028000A128A1117280A128A1168200A128A11DC
:1000380045280711602801300A128A1127210A125F
:100048008A110A128A1117210A128A1183120313BC
:10005800A0002008F800602802300A128A1127211F
:100068000A128A110A128A1117210A128A11831296
:100078000313A0002008F700602807156028FA017C
:1000880060287A0883120313A000A1012108003A0E
:1000980003194F2860282008003A03191D28023A3E
:1000A80003191F28063A03193028023A0319412870
:1000B800FF3A0319432860287808860077088800E3
:1000C80045280A128A110C2883160317880189010A
:1000D80083160313860107118711071688018312F7
:1000E8000313860107158801831603138112011271
:1000F8008111011581140114FF308312031381004B
:1001080004300A128A11A4200A128A110A128A11CA
:1001180009210A128A11F301F401F50120300A12AB
:100128008A11F3200A128A118B178B160B1183166A
:1001380003130C168C16831203130C128C1208006E
:10014800F500C428831603130F088F3940388F0031
:100158000F14DA28831603130F088F3950388F00CD
:100168000F14DA28831603130F088F3960388F00AD
:100178000F14DA287030831603138F040F14DA284B
:100188007508F300F4017408003A0319CC28DA283A
:100198007308013A0319A628033A0319AE28063A48
:1001A8000319B6280C3A0319BE28DA2808000B1DD3
:1001B800DE28DF28EC280130F0007008FA0701304B
:1001C800F0007008F9070B11FF3083120313810048
:1001D80072088A00710E8300FE0E7E0E0900F6007A
:1001E800831603138712761DFA28FB28FF28750843
:1001F80094008715032973087504940087117608FD
:1002080074048312031394000800831603178715D8
:1002180067308316031399009A0183120313981702
:100228001813181608000A128A1120210A128A11B6
:10023800831203131308080083160313141C2529BB
:10024800262920290800F30073088312031393005A
:0202580008009C
:04400E00D420FF3F7C
:00000001FF
