:020000040000FA
:060000000A128A110C280F
:10000800FE00030EF1000A08F2000A128A11362ACD
:100018000A128A110F28F801F901FA018312031351
:10002800AE01AF01B001B101B201B301B401B50134
:10003800B601B70183010A128A1122280A128A110D
:10004800B4210A128A118312031307158809033091
:1000580083120313AD008A30AC005530AB00AB0BF4
:100068003328AC0B3328AD0B3328831203138809CC
:100078000A30A4000030A5006430F3000030F4001A
:100088007A08AB00AC0103102B0DF5002C0DF6001F
:100098000A128A11F0200A128A11740883120313B3
:1000A800A7007308A6000A128A1159210A128A1198
:1000B800831203132408AD002D08B5000A30A400EC
:1000C8000030A5000A30F3000030F4007A08AB00D5
:1000D800AC0103102B0DF5002C0DF6000A128A1145
:1000E800F0200A128A11740883120313A7007308F8
:1000F800A6000A128A1159210A128A1183120313BF
:100108002408AD002D08B4000A30A4000030A50072
:100118006430F3000030F4007908AB00AC01031040
:100128002B0DF5002C0DF6000A128A11F0200A1288
:100138008A11740883120313A7007308A6000A1211
:100148008A1159210A128A11831203132408AD0057
:100158002D08B3000A30A4000030A5000A30F300CF
:100168000030F4007908AB00AC0103102B0DF5004A
:100178002C0DF6000A128A11F0200A128A1174084E
:1001880083120313A7007308A6000A128A115921C3
:100198000A128A11831203132408AD002D08B20035
:1001A8003508303EAB002B08B1003408303EAB00B8
:1001B8002B08B0003308303EAB002B08AF003208E4
:1001C800303EAB002B08AE007A088600790888001C
:1001D8002A280A128A110C2883120313A101F41F7A
:1001E800F628F728FE28F309F409F30A0319F40A94
:1001F800A101A10AF61F012902290B29F509F6090F
:10020800F50A0319F60A0130F7007708A106A201DA
:10021800A301730874040319122913294A29A00198
:10022800A00A212901300310F30DF40DFF3E031D30
:1002380017290130F7007708A007F41F242925297A
:10024800162901300310A20DA30DFF3E031D262918
:1002580074087602031D322973087502031C3529B8
:1002680036293D297308F5027408031CF603F602C3
:10027800221401300310F40CF30CFF3E031D3E2939
:100288000130A002031D49294A29252921080319FB
:100298004E294F295429A209A309A20A0319A30A1E
:1002A8002308F4002208F300080083120313AA01AC
:1002B800A71F5F2960296729A609A709A60A0319A4
:1002C800A70AAA01AA0AA51F6A296B297029A409E5
:1002D800A509A40A0319A50A2408250403197529E0
:1002E8007629A529A901A90A842901300310A40D9A
:1002F800A50DFF3E031D7A290130A8002808A9078B
:10030800A51F87298829792925082702031D8E29F1
:1003180024082602031C9129922998292408A60258
:100328002508031CA703A70201300310A50CA40C81
:10033800FF3E031D99290130A902031DA429A529FF
:1003480088292A080319A929AA29AF29A609A709CA
:10035800A60A0319A70A2708A5002608A40008006A
:100368008316031788018901831603138601071171
:10037800871107160713871788018312031386014D
:1003880007158801831603138112011281110115C3
:1003980081140114FF3083120313810004300A1200
:1003A8008A11FF210A128A11F301F401F5012030A4
:1003B8000A128A1153220A128A1183160313181279
:1003C80018151813831603178711831603139A0138
:1003D80019309900831203139817181318168316E7
:1003E800031398168B170B178B160B110C16831209
:1003F80003130C120800F5001F2A831603130F08B5
:100408008F3940388F000F14352A831603130F08CD
:100418008F3950388F000F14352A831603130F08AD
:100428008F3960388F000F14352A70308316031304
:100438008F040F14352A7508F300F4017408003A84
:100448000319272A352A7308013A0319012A033A9E
:100458000319092A063A0319112A0C3A0319192A09
:10046800352A0800831203130C1E3B2A3C2A3D2A16
:100478000C120B1D402A412A4C2A0130F00070084A
:10048800B7070130F0007008B6070B11FF30810084
:1004980072088A00710E8300FE0E7E0E0900F600B7
:1004A800831603138712761D5A2A5B2A5F2A75085A
:1004B80094008715632A73087504940087117608D9
:0A04C800740483120313940008006B
:04400E00D420FF3F7C
:00000001FF
