:020000040000FA
:060000000A128A110E280D
:10000800FE00030EF3000408F4000A08F5000A12C3
:100018008A11E82A0A128A111128F601F701F80153
:1000280083120313B301B401B501B601B701B801D6
:10003800B901BA01BB01BC0183010A128A11242843
:100048000A128A11EB210A128A118312031307116B
:10005800C73083120313B0003128B00B302834287E
:1000680001300A128A1113230A128A110A128A11FC
:1000780003230A128A1183120313B0003008BC004C
:10008800C73083120313B0004928B00B48284C2806
:100098008312031307150711C73083120313B00027
:1000A8005528B00B5428582802300A128A111323F5
:1000B8000A128A110A128A1103230A128A11831258
:1000C8000313B0003008BB00C73083120313B0001D
:1000D8006D28B00B6C2870288312031307150A309B
:1000E800A9000030AA006430A0000030A1003C083C
:1000F800B000B1010310300DA200310DA3000A12A7
:100108008A1127210A128A11831203132108AC00CD
:100118002008AB000A128A1190210A128A11831250
:1001280003132908B2003208BA000A30A9000030C7
:10013800AA000A30A0000030A1003C08B000B101BC
:100148000310300DA200310DA3000A128A112721D5
:100158000A128A11831203132108AC002008AB008D
:100168000A128A1190210A128A118312031329088C
:10017800B2003208B9000A30A9000030AA00643081
:10018800A0000030A1003B08B000B1010310300D01
:10019800A200310DA3000A128A1127210A128A111E
:1001A800831203132108AC002008AB000A128A113D
:1001B80090210A128A11831203132908B200320807
:1001C800B8000A30A9000030AA000A30A0000030A8
:1001D800A1003B08B000B1010310300DA200310DA1
:1001E800A3000A128A1127210A128A118312031303
:1001F8002108AC002008AB000A128A1190210A12CB
:100208008A11831203132908B2003208B7003A088A
:10021800303EB0003008B6003908303EB000300833
:10022800B5003808303EB0003008B4003708303E1A
:10023800B0003008B3003C0886003B088800292835
:100248000A128A110E2883120313A601A11F2D2951
:100258002E293529A009A109A00A0319A10AA60176
:10026800A60AA31F382939294229A209A309A20AE3
:100278000319A30A0130A4002408A606A701A801AF
:1002880020082104031949294A298129A501A50A19
:10029800582901300310A00DA10DFF3E031D4E2962
:1002A8000130A4002408A507A11F5B295C294D295A
:1002B80001300310A70DA80DFF3E031D5D2921087D
:1002C8002302031D692920082202031C6C296D29B9
:1002D80074292008A2022108031CA303A3022714DF
:1002E80001300310A10CA00CFF3E031D752901303D
:1002F800A502031D802981295C292608031985295F
:1003080086298B29A709A809A70A0319A80A280872
:10031800A1002708A000080083120313AF01AC1F37
:10032800962997299E29AB09AC09AB0A0319AC0A8F
:10033800AF01AF0AAA1FA129A229A729A909AA09B9
:10034800A90A0319AA0A29082A040319AC29AD29FC
:10035800DC29AE01AE0ABB2901300310A90DAA0D94
:10036800FF3E031DB1290130AD002D08AE07AA1FBD
:10037800BE29BF29B0292A082C02031DC52929082E
:100388002B02031CC829C929CF292908AB022A082E
:10039800031CAC03AC0201300310AA0CA90CFF3EED
:1003A800031DD0290130AE02031DDB29DC29BF293A
:1003B8002F080319E029E129E629AB09AC09AB0AA2
:1003C8000319AC0A2C08AA002B08A90008008316F8
:1003D8000317880189018316031386010711871102
:1003E8000716071387178801831203138601071559
:1003F80088018316031381120112811101158114DA
:100408000114FF3083120313810090161016901503
:100418001015901010140C308F0026308E00043008
:100428000A128A1191220A128A1183120313A00157
:10043800A101A20120300A128A11CA220A128A11C5
:100448008316031318121815181383160317871128
:10045800831603139A01193099008312031398170E
:10046800181318128316031398168B170B170C16EC
:10047800831203130C120800652A20308312031319
:100488009900902A8312031336089900902A2E3077
:10049800831203139900902A8312031335089900D5
:1004A800902A8312031334089900902A0D3083127E
:1004B80003139900902A7608831203139900F60112
:1004C800902A7608F000F1017108003A03196D2AA4
:1004D800902A7008003A0319412A013A0319462A5A
:1004E800033A03194B2A013A0319502A073A031908
:1004F800412A013A0319412A033A0319552A013AB4
:1005080003194B2A0F3A0319552A013A03195A2A93
:10051800C13A03195F2A902A080083120313A20024
:10052800B32A831603130F088F3940388F000F142E
:10053800C92A831603130F088F3950388F000F14F8
:10054800C92A831603130F088F3960388F000F14D8
:10055800C92A7030831603138F040F14C92A22087E
:10056800A000A1012108003A0319BB2AC92A2008C2
:10057800013A0319952A033A03199D2A063A0319E1
:10058800A52A0C3A0319AD2AC92A080083120313B5
:10059800A30083160313871283120313231DD52A7E
:1005A800D62ADC2A22088316031394008715E22A28
:1005B800200822048316031394008711831203135F
:1005C8002308210494000800831203130C1EED2A4B
:1005D800EE2AFA2A0130F2007208F6070A128A1186
:1005E80040220A128A11831203130C1275088A001A
:1005F80074088400730E8300FE0E7E0E09000A1232
:100608008A110C230A128A11831203131308080093
:1006180083160313141C112B122B0C2B08008312A6
:0A0628000313A0002008930008004F
:04400E00D420FF3F7C
:00000001FF
