:020000040000FA
:060000000A128A110E280D
:10000800FE00030EF3000408F4000A08F5000A12C3
:100018008A11DE2A0A128A111128F70183120313A2
:10002800B201B301B401B501B601B701B801B90114
:10003800BA01BB01BC0183010A128A1123280A12E2
:100048008A11FD210A128A11831203130711C7307E
:1000580083120313AF003028AF0B2F283328013049
:100068000A128A1130230A128A110A128A112023CD
:100078000A128A1183120313AF002F08BC00C7307D
:1000880083120313AF004828AF0B47284B2883126D
:10009800031307150711C73083120313AF00542841
:1000A800AF0B5328572802300A128A1130230A123C
:1000B8008A110A128A1120230A128A118312031341
:1000C800AF002F08BB00C73083120313AF006C28A2
:1000D800AF0B6B286F288312031307150A30A8008B
:1000E8000030A9006430A0000030A1003C08AF0037
:1000F800B00103102F0DA200300DA3000A128A11BF
:1001080039210A128A11831203132108AB0020082F
:10011800AA000A128A11A2210A128A118312031351
:100128002808B1003108BA000A30A8000030A90038
:100138000A30A0000030A1003C08AF00B001031055
:100148002F0DA200300DA3000A128A1139210A12BC
:100158008A11831203132108AB002008AA000A128F
:100168008A11A2210A128A11831203132808B100E6
:100178003108B9000A30A8000030A9006430A00096
:100188000030A1003B08AF00B00103102F0DA20002
:10019800300DA3000A128A1139210A128A1183121A
:1001A80003132108AB002008AA000A128A11A22111
:1001B8000A128A11831203132808B1003108B80003
:1001C8000A30A8000030A9000A30A0000030A100C1
:1001D8003B08AF00B00103102F0DA200300DA300A3
:1001E8000A128A1139210A128A118312031321086B
:1001F800AB002008AA000A128A11A2210A128A1149
:10020800831203132808B1003108B7003A08303EBA
:10021800AF002F08B6003908303EAF002F08B500F0
:100228003808303EAF002F08B4003708303EAF0022
:100238002F08B30031303206031D23292429292928
:100248000130AF002F088607312932303206031DEE
:100258002E292F293129013086023C0886003B08C7
:10026800880028280A128A110E2883120313A50170
:10027800A11F3F2940294729A009A109A00A03195C
:10028800A10AA501A50AA31F4A294B295429A20995
:10029800A309A20A0319A30A0130F6007608A506E5
:1002A800A601A7012008210403195B295C299329C9
:1002B800A401A40A6A2901300310A00DA10DFF3E74
:1002C800031D60290130F6007608A407A11F6D29D7
:1002D8006E295F2901300310A60DA70DFF3E031DEF
:1002E8006F2921082302031D7B2920082202031CF1
:1002F8007E297F2986292008A2022108031CA3033E
:10030800A302261401300310A10CA00CFF3E031D0C
:1003180087290130A402031D922993296E292508F3
:100328000319972998299D29A609A709A60A031937
:10033800A70A2708A1002608A000080083120313B3
:10034800AE01AB1FA829A929B029AA09AB09AA0A95
:100358000319AB0AAE01AE0AA91FB329B429B929FA
:10036800A809A909A80A0319A90A28082904031928
:10037800BE29BF29EE29AD01AD0ACD2901300310F0
:10038800A80DA90DFF3E031DC3290130AC002C08A0
:10039800AD07A91FD029D129C22929082B02031D7D
:1003A800D72928082A02031CDA29DB29E129280889
:1003B800AA022908031CAB03AB0201300310A90CE5
:1003C800A80CFF3E031DE2290130AD02031DED29F3
:1003D800EE29D1292E080319F229F329F829AA09A7
:1003E800AB09AA0A0319AB0A2B08A9002A08A80016
:1003F80008008316031788018901831603138601F1
:10040800071187110716071387178801831203132B
:1004180086010715880183160313811201128111C1
:10042800011581140114FF30831203138100901603
:10043800101690151015901010140C308F002630DF
:100448008E0004300A128A11A5220A128A11831218
:100458000313A001A101A20120300A128A1102236C
:100468000A128A1183160313181218151813831603
:1004780003178711831603139A0119309900831201
:1004880003139817181318128316031398168B174B
:100498000B170C168C16831203130C128C120800FF
:1004A800792A2030831203139900A42A8312031394
:1004B80036089900A42A2E30831203139900A42A1F
:1004C8008312031335089900A42A831203133408EE
:1004D8009900A42A0A30831203139900A42A7708E2
:1004E800831203139900F701A42A7708F000F10199
:1004F8007108003A0319812AA42A7008003A0319DE
:10050800552A013A03195A2A033A03195F2A013A6C
:100518000319642A073A0319552A013A0319552A77
:10052800033A0319692A013A03195F2A0F3A031992
:10053800692A013A03196E2AC13A0319732AA42AAF
:100548000800F600C52A831603130F088F394038B0
:100558008F000F14DD2A831603130F088F395038C4
:100568008F000F14DD2A831603130F088F396038A4
:100578008F000F14DD2A7030831603138F040F14B5
:10058800DD2A760883120313A000A1012108003A8E
:100598000319CF2ADD2A2008013A0319A72A033AAA
:1005A8000319AF2A063A0319B72A0C3A0319BF2AC6
:1005B800DD2A0800831203130C1EE32AE42AF02A1A
:1005C8000130F2007208F7070A128A1154220A123F
:1005D8008A11831203130C128C1EF32AF42AF92AA7
:1005E8001A08F2007208B2008C1275088A007408A2
:1005F8008400730E8300FE0E7E0E0900F60083163B
:1006080003138712761D092B0A2B122B831203134F
:10061800220883160313940087151A2B83120313D9
:100628002008220483160313940087117608831286
:1006380003132104940008000A128A1129230A12BC
:100648008A11831203131308080083160313141C5A
:100658002E2B2F2B292B0800F60076088312031364
:0406680093000800F3
:04400E00D420FF3F7C
:00000001FF
