:020000040000FA
:060000000A128A110C280F
:10000800FE00030EF1000A08F2000A128A11C12844
:100018000A128A110F28F801F90183010A128A11BC
:1000280015280A128A118D200A128A113D28831276
:10003800031307113D280130F700770883120313D3
:1000480086073D288312031306080A128A110F2116
:100058000A128A113D280A128A11FF200A128A11EF
:100068008312031388003D28831203130715F80130
:10007800F9017908003A031942283D287808003A1E
:1000880003191B28013A03191F28033A03192628C4
:10009800013A03192F28073A031938283D280A126C
:1000A8008A110C28F5007628831603130F088F3958
:1000B80040388F000F148C28831603130F088F39CC
:1000C80050388F000F148C28831603130F088F39AC
:1000D80060388F000F148C287030831603138F0438
:1000E8000F148C287508F300F4017408003A0319FA
:1000F8007E288C287308013A03195828033A0319F3
:100108006028063A031968280C3A031970288C28C5
:1001180008008316031788018901831603138601D3
:100128000711871107168801831203138601071523
:1001380088019016101690151015901010148F0144
:100148008E0104300A128A1156200A128A110A12E4
:100158008A11F1200A128A11F301F401F501203005
:100168000A128A11DB200A128A118B1783160313CD
:100178008C16831203138C120800831203130C1CB1
:10018800C628C728D4280130F8070318F90A003010
:10019800F9070130F000700886078F018E010C10F6
:1001A80072088A00710E8300FE0E7E0E0900F600AA
:1001B800831603138712761DE228E328E7287508BB
:1001C80094008715EB287308750494008711760846
:1001D8007404831203139400080083160317871509
:1001E80067308316031399009A0183120313981733
:1001F8001813181608000A128A1108210A128A11FF
:10020800831203131308080083160313141C0D2903
:100218000E2908290800F3007308831203139300BA
:020228000800CC
:04400E00D420FF3F7C
:00000001FF
