:020000040000FA
:060000000A128A110C280F
:10000800FE00030EF1000A08F2000A128A11BC2849
:100018000A128A110F28F901FA0183010A128A11BA
:1000280015280A128A118D200A128A11342883127F
:10003800031307114A2800300A128A11FA200A12FB
:100048008A110A128A11EA200A128A1183120313EA
:1000580088004A288312031307154A28FA014A28F8
:100068007A08F700F8017808003A03193C284A286A
:100078007708003A03191B28023A03191F28063A81
:1000880003192E28FD3A031932284A28831203132C
:10009800060A031D502851283428860134280A12DC
:1000A8008A110C28F5007628831603130F088F3958
:1000B80040388F000F148C28831603130F088F39CC
:1000C80050388F000F148C28831603130F088F39AC
:1000D80060388F000F148C287030831603138F0438
:1000E8000F148C287508F300F4017408003A0319FA
:1000F8007E288C287308013A03195828033A0319F3
:100108006028063A031968280C3A031970288C28C5
:1001180008008316031788018901831603138601D3
:100128000711871107168801831203138601071523
:10013800880183160313811201128111011581149C
:100148000114FF3083120313810004300A128A114C
:1001580056200A128A11F301F401F50120300A121F
:100168008A11D4200A128A118B178B160B110800DA
:100178000B1DBF28C028CD280130F0007008FA07F1
:100188000130F0007008F9070B11FF3083120313D8
:10019800810072088A00710E8300FE0E7E0E09002F
:1001A800F600831603138712761DDB28DC28E02867
:1001B800750894008715E42873087504940087115E
:1001C8007608740483120313940008000A128A1133
:1001D800F3200A128A1183120313130808008316E6
:1001E8000313141CF828F928F3280800F3007308EF
:0801F8008312031393000800B9
:04400E00D420FF3F7C
:00000001FF
