:020000040000FA
:060000000A128A110C280F
:10000800FE00030EF1000A08F2000A128A11E42821
:100018000A128A110F28F90183010A128A11142879
:100028000A128A115D200A128A113B2883120313CF
:10003800071151288312031306080A128A11162180
:100048000A128A110A128A1106210A128A118312C7
:100058000313880051288312031307155128013010
:10006800F7007708831203138607F90151287908E6
:10007800F700F8017808003A03194328512877084F
:10008800003A03191A28023A03191E28063A0319D6
:100098002F28FD3A03193328512883120313060A1F
:1000A800031D572858283B2886013B280A128A1125
:1000B8000C28831603178801890183160313860108
:1000C8000711871107168801831203138601071584
:1000D80088018316031381120112811101158114FD
:1000E8000114FF3083120313810004300A128A11AD
:1000F80097200A128A110A128A11F8200A128A1104
:10010800F301F401F50120300A128A11CE200A12F7
:100118008A118B17831603130C148B160B11831279
:1001280003130C100800F500B728831603130F08F3
:100138008F3940388F000F14CD28831603130F080A
:100148008F3950388F000F14CD28831603130F08EA
:100158008F3960388F000F14CD2870308316031341
:100168008F040F14CD287508F300F4017408003AC1
:100178000319BF28CD287308013A03199928033AAF
:100188000319A128063A0319A9280C3A0319B1281A
:10019800CD280800F600831603138712761DD5288C
:1001A800D628DA28750894008715DE2873087504A0
:1001B80094008711760874048312031394000800CE
:1001C8000B1DE728E828F1280130F0007008F9072E
:1001D8000B11FF3083120313810072088A00710E1D
:1001E8008300FE0E7E0E09008316031787156730FD
:1001F8008316031399009A0183120313981718138F
:10020800181608000A128A110F210A128A1183127D
:1002180003131308080083160313141C1429152943
:100228000F290800F30073088312031393000800D2
:04400E00D420FF3F7C
:00000001FF
