:020000040000FA
:060000000A128A110C280F
:10000800FE00030EF0000A08F1000A128A11A62861
:100018000A128A110F2883010A128A119D28F400F6
:100028003328831603130F088F3940388F000F14B5
:100038004928831603130F088F3950388F000F147F
:100048004928831603130F088F3960388F000F145F
:1000580049287030831603138F040F144928740835
:10006800F200F3017308003A03193B284928720883
:10007800013A03191528033A03191D28063A0319EA
:1000880025280C3A03192D28492808008316031738
:10009800880189010814881483160313860107133D
:1000A800871788120813881383120313860188019F
:1000B80004300A128A1113200A128A110A128A11AC
:1000C80079200A128A110A128A118F200A128A11BB
:1000D8000A128A11AD200A128A118B17831603138C
:1000E8008C16831203138C120800831603139F13B4
:1000F8001F129F12831203131F083F3940389F00B5
:10010800C3309F051030F200F20B882800008312DC
:1001180003131F1408008316031787156730831607
:10012800031399009A0183120313981718131816CA
:1001380008000A128A114A200A128A11A2280A12F1
:100148008A110C2871088A00700E8300FE0E7E0E3C
:040158000900080092
:04400E00D420FF3F7C
:00000001FF
