:020000040000FA
:060000000A128A110E280D
:10000800FE00030EF3000408F4000A08F5000A12C3
:100018008A116E2A0A128A111128F601F701831231
:100028000313B301B401B501B601B701B801B901B1
:10003800BA01BB01BC01BD0183010A128A1124283F
:100048000A128A11E5210A128A11522807116D280D
:1000580001300A128A11EC220A128A110A128A1134
:10006800DC220A128A1183120313B0003008BD0083
:100078006D2802300A128A11EC220A128A110A1219
:100088008A11DC220A128A1183120313B000300885
:10009800BC006D2807156D28BB016D28831203135A
:1000A8003B08B000B1013108003A03195C286D28FB
:1000B8003008003A03192A28023A03192C280A3A68
:1000C80003193D28023A03194E28F33A0319502818
:1000D8006D280A30A9000030AA006430A000003062
:1000E800A1003D08B000B1010310300DA200310D90
:1000F800A3000A128A1121210A128A1183120313FA
:100108002108AC002008AB000A128A118A210A12C1
:100118008A11831203132908B2003208BA000A3080
:10012800A9000030AA000A30A0000030A1003D0854
:10013800B000B1010310300DA200310DA3000A1266
:100148008A1121210A128A11831203132108AC0093
:100158002008AB000A128A118A210A128A11831216
:1001680003132908B2003208B9000A30A900003088
:10017800AA006430A0000030A1003C08B000B10122
:100188000310300DA200310DA3000A128A1121219B
:100198000A128A11831203132108AC002008AB004D
:1001A8000A128A118A210A128A1183120313290852
:1001B800B2003208B8000A30A9000030AA000A309C
:1001C800A0000030A1003C08B000B1010310300DC0
:1001D800A200310DA3000A128A1121210A128A11E4
:1001E800831203132108AC002008AB000A128A11FD
:1001F8008A210A128A11831203132908B2003208CD
:10020800B7003A08303EB0003008B6003908303E32
:10021800B0003008B5003808303EB0003008B400EF
:100228003708303EB0003008B3003D0886003C086F
:10023800880052280A128A110E2883120313A60175
:10024800A11F272928292F29A009A109A00A0319D4
:10025800A10AA601A60AA31F322933293C29A2090B
:10026800A309A20A0319A30A0130A4002408A606B8
:10027800A701A801200821040319432944297B293F
:10028800A501A50A522901300310A00DA10DFF3EBA
:10029800031D48290130A4002408A507A11F5529DA
:1002A8005629472901300310A70DA80DFF3E031D4D
:1002B800572921082302031D632920082202031C51
:1002C800662967296E292008A2022108031CA303B6
:1002D800A302271401300310A10CA00CFF3E031D3C
:1002E8006F290130A502031D7A297B295629260882
:1002F80003197F2980298529A709A809A70A0319AD
:10030800A80A2808A1002708A000080083120313E0
:10031800AF01AC1F902991299829AB09AC09AB0A08
:100328000319AC0AAF01AF0AAA1F9B299C29A1296E
:10033800A909AA09A90A0319AA0A29082A04031952
:10034800A629A729D629AE01AE0AB529013003107E
:10035800A90DAA0DFF3E031DAB290130AD002D08E4
:10036800AE07AA1FB829B929AA292A082C02031DF1
:10037800BF2929082B02031CC229C329C929290816
:10038800AB022A08031CAC03AC0201300310AA0C10
:10039800A90CFF3E031DCA290130AE02031DD52951
:1003A800D629B9292F080319DA29DB29E029AB094D
:1003B800AC09AB0A0319AC0A2C08AA002B08A9003F
:1003C8000800831603178801890183160313860121
:1003D800071187110716071387178801831203135C
:1003E80086010715880183160313811201128111F2
:1003F800011581140114FF308312031381000430A6
:100408000A128A1135220A128A1183120313A001D3
:10041800A101A20120300A128A11BE220A128A11F1
:100428008316031318131812181583160317871148
:10043800831603139A01193099000C169816831223
:1004480003139817181318168B170B178B160B1105
:10045800831603130C168C16831203130C128C12BA
:10046800080083120313A200572A831603130F08E8
:100478008F3940388F000F146D2A831603130F0825
:100488008F3950388F000F146D2A831603130F0805
:100498008F3960388F000F146D2A7030831603135C
:1004A8008F040F146D2A2208A000A1012108003A28
:1004B80003195F2A6D2A2008013A0319392A033AD9
:1004C8000319412A063A0319492A0C3A0319512AF1
:1004D8006D2A0800831203130C1E732A742A802ABB
:1004E8000130F2007208F6070A128A1198220A12DD
:1004F8008A11831203130C120B1D832A842A8F2A54
:100508000130F2007208BB070130F2007208F707E9
:100518000B11FF30810075088A0074088400730E7F
:100528008300FE0E7E0E09009B2AF601BD2A76087E
:10053800F000F1017108003A0319A32ABD2A7008D6
:10054800013A0319BD2A033A0319BD2A013A0319CE
:10055800BD2A073A0319BD2A013A0319BD2A033AED
:100568000319BD2A013A0319BD2A0F3A0319992A1A
:10057800BD2A080083120313A300831603138712EE
:1005880083120313231DC92ACA2AD02A22088316D4
:10059800031394008715D62A200822048316031310
:1005A8009400871183120313230821049400080080
:1005B8000A128A11E5220A128A11831203131308F8
:1005C800080083160313141CEA2AEB2AE52A0800FC
:0C05D80083120313A00020089300080009
:04400E00D420FF3F7C
:00000001FF
