:020000040000FA
:060000000A128A110E280D
:10000800FE00030EF3000408F4000A08F5000A12C3
:100018008A11DC2A0A128A111128F70183120313A4
:10002800B201B301B401B501B601B701B801B90114
:10003800BA01BB01BC0183010A128A1123280A12E2
:100048008A11FB210A128A11831203130711C73080
:1000580083120313AF003028AF0B2F283328013049
:100068000A128A112E230A128A110A128A111E23D1
:100078000A128A1183120313AF002F08BC00C7307D
:1000880083120313AF004828AF0B47284B2883126D
:10009800031307150711C73083120313AF00542841
:1000A800AF0B5328572802300A128A112E230A123E
:1000B8008A110A128A111E230A128A118312031343
:1000C800AF002F08BB00C73083120313AF006C28A2
:1000D800AF0B6B286F288312031307150A30A8008B
:1000E8000030A9006430A0000030A1003C08AF0037
:1000F800B00103102F0DA200300DA3000A128A11BF
:1001080037210A128A11831203132108AB00200831
:10011800AA000A128A11A0210A128A118312031353
:100128002808B1003108BA000A30A8000030A90038
:100138000A30A0000030A1003C08AF00B001031055
:100148002F0DA200300DA3000A128A1137210A12BE
:100158008A11831203132108AB002008AA000A128F
:100168008A11A0210A128A11831203132808B100E8
:100178003108B9000A30A8000030A9006430A00096
:100188000030A1003B08AF00B00103102F0DA20002
:10019800300DA3000A128A1137210A128A1183121C
:1001A80003132108AB002008AA000A128A11A02113
:1001B8000A128A11831203132808B1003108B80003
:1001C8000A30A8000030A9000A30A0000030A100C1
:1001D8003B08AF00B00103102F0DA200300DA300A3
:1001E8000A128A1137210A128A118312031321086D
:1001F800AB002008AA000A128A11A0210A128A114B
:10020800831203132808B1003108B7003A08303EBA
:10021800AF002F08B6003908303EAF002F08B500F0
:100228003808303EAF002F08B4003708303EAF0022
:100238002F08B30031303206031D23292429292928
:100248000130AF002F088607312932303206031DEE
:100258002E292F293129013086023B0888002828B9
:100268000A128A110E2883120313A501A11F3D2922
:100278003E294529A009A109A00A0319A10AA50137
:10028800A50AA31F482949295229A209A309A20A94
:100298000319A30A0130F6007608A506A601A701EE
:1002A80020082104031959295A299129A401A40ACB
:1002B800682901300310A00DA10DFF3E031D5E2922
:1002C8000130F6007608A407A11F6B296C295D2967
:1002D80001300310A60DA70DFF3E031D6D2921084F
:1002E8002302031D792920082202031C7C297D2969
:1002F80084292008A2022108031CA303A3022614B0
:1003080001300310A10CA00CFF3E031D852901300C
:10031800A402031D902991296C2925080319952900
:1003280096299B29A609A709A60A0319A70A270837
:10033800A1002608A000080083120313AE01AB1F1A
:10034800A629A729AE29AA09AB09AA0A0319AB0A43
:10035800AE01AE0AA91FB129B229B729A809A9096E
:10036800A80A0319A90A280829040319BC29BD29C0
:10037800EC29AD01AD0ACB2901300310A80DA90D58
:10038800FF3E031DC1290130AC002C08AD07A91F91
:10039800CE29CF29C02929082B02031DD5292808D1
:1003A8002A02031CD829D929DF292808AA022908E2
:1003B800031CAB03AB0201300310A90CA80CFF3ED1
:1003C800031DE0290130AD02031DEB29EC29CF29DB
:1003D8002E080319F029F129F629AA09AB09AA0A56
:1003E8000319AB0A2B08A9002A08A80008008316DD
:1003F80003178801890183160313860107118711E2
:100408000716071387178801831203138601071538
:1004180088018316031381120112811101158114B9
:100428000114FF30831203138100901610169015E3
:100438001015901010140C308F0026308E000430E8
:100448000A128A11A3220A128A1183120313A00125
:10045800A101A20120300A128A1100230A128A116E
:100468008316031318121815181383160317871108
:10047800831603139A0119309900831203139817EE
:10048800181318128316031398168B170B170C16CC
:100498008C16831203130C128C120800772A203052
:1004A800831203139900A22A8312031336089900B2
:1004B800A22A2E30831203139900A22A831203134F
:1004C80035089900A22A8312031334089900A22A36
:1004D8000D30831203139900A22A7708831203139D
:1004E8009900F701A22A7708F000F1017108003A93
:1004F80003197F2AA22A7008003A0319532A013ADD
:100508000319582A033A03195D2A013A0319622A82
:10051800073A0319532A013A0319532A033A0319CC
:10052800672A013A03195D2A0F3A0319672A013A23
:1005380003196C2AC13A0319712AA22A0800F60085
:10054800C32A831603130F088F3940388F000F14FE
:10055800DB2A831603130F088F3950388F000F14C6
:10056800DB2A831603130F088F3960388F000F14A6
:10057800DB2A7030831603138F040F14DB2A7608E6
:1005880083120313A000A1012108003A0319CD2A00
:10059800DB2A2008013A0319A52A033A0319AD2AD0
:1005A800063A0319B52A0C3A0319BD2ADB2A0800B2
:1005B800831203130C1EE12AE22AEE2A0130F2000C
:1005C8007208F7070A128A1152220A128A11831234
:1005D80003130C128C1EF12AF22AF72A1A08F200C9
:1005E8007208B2008C1275088A0074088400730EB1
:1005F8008300FE0E7E0E0900F60083160313871291
:10060800761D072B082B102B831203132208831641
:10061800031394008715182B831203132008220450
:100628008316031394008711760883120313210499
:10063800940008000A128A1127230A128A118312C9
:1006480003131308080083160313141C2C2B2D2BDB
:10065800272B0800F600760883120313930008007E
:04400E00D420FF3F7C
:00000001FF
